:020000040800F2
:10000000D809002081010008C9310008D92D000855
:1000100000000000000000000000000000000000E0
:10002000000000000000000000000000373200085F
:10003000000000000000000035320008893200088E
:10004000B1010008B1010008B1010008B1010008C8
:10005000B1010008B1010008B1010008B1010008B8
:10006000B1010008B10100084D0500086505000850
:10007000B1010008B1010008B1010008B101000898
:10008000B10100080000000000000000B1010008FC
:1000900000000000B1010008B1010008B101000832
:1000A00000000000B1010008B10100082547000868
:1000B0003147000800000000B1010008B10100084C
:1000C00000F002F800F04CF812A030C808382418EC
:1000D0002D18AC4201D100F043F80FCCA246AB463C
:1000E0000CA730CF2D1B083F3F197C427F1E544484
:1000F0002D090426F441641EAC4201D300F030F80F
:100100000126334200D0FB1A3343984754465D46DC
:10011000DFE700002448000044480000103A02D302
:1001200078C878C1FAD8520701D330C830C101D598
:1001300004680C6070470000704700000023002432
:1001400000250026103A01D378C1FBD8520700D30E
:1001500030C100D50B6070471FB51FBD10B510BD75
:1001600000F0C1F91146FFF7F7FF04F03FFB00F084
:10017000D9F903B4FFF7F2FF03BC00F0DFF9000088
:100180000F4880F308880F480168090E0E4A914213
:1001900005D10E480E4901600E480F4901600F4815
:1001A00080470F480047FEE7FEE7FEE7FEE7FEE771
:1001B000FEE700000B480C490C4A0D4B704700004D
:1001C000D8090020040000001F00000018100240A1
:1001D000010000000000014000000000DF350008C1
:1001E000C1000008D8030020D8090020D80500204D
:1001F000D80500204343514330B55C18010C130C63
:100200000D4692B25D4380B251432C1905465543C9
:100210000A0C09044D1962415843010C00044019AD
:10022000514130BDFEB5044610460D46184373D00B
:10023000A6468C460020A41A01469D4167D3664617
:10024000002701243D46B61A9D4102D313463A4683
:100250002124654676462F04360C3E432D0CB61AF3
:100260009D4104D3150C1B042B4312041034654626
:1002700076462F06360A3E432D0AB61A9D4104D310
:10028000150E1B022B4312020834654676462F07D3
:1002900036093E432D09B61A9D4104D3150F1B01A3
:1002A0002B431201241D65467646AF07B6083E4330
:1002B000AD08B61A9D4104D3950F9B002B439200C5
:1002C000A41C65467646EF0776083E436D08B61ACD
:1002D0009D411AD392185B41641C16E000187646C3
:1002E00065464941B71A9D410191009009D3604686
:1002F000B11A98418E468446009801990025401C09
:100300006941DD0752082A435B08641EE6D5724640
:10031000634603B0F0BDFFE72046284307D0002026
:10032000C0430146C046C04622462B46F1E70020A6
:100330000146F7E701E004C0091F0429FBD28B073F
:1003400001D50280801CC90700D0027070470029C7
:100350000BD0C30702D00270401C491E022904D3EF
:10036000830702D50280801C891EE3E70022EEE7A6
:100370000022DFE7002203098B422CD3030A8B42C1
:1003800011D300239C464EE003460B433CD400228D
:1003900043088B4231D303098B421CD3030A8B429F
:1003A00001D394463FE0C3098B4201D3CB01C01A6D
:1003B000524183098B4201D38B01C01A5241430938
:1003C0008B4201D34B01C01A524103098B4201D326
:1003D0000B01C01A5241C3088B4201D3CB00C01A93
:1003E000524183088B4201D38B00C01A524143080B
:1003F0008B4201D34B00C01A5241411A00D2014630
:100400005241104670475DE0CA0F00D049420310C8
:1004100000D3404253409C46002203098B422DD317
:10042000030A8B4212D38901FC2212BA030A8B42BF
:100430000CD3890192118B4208D3890192118B420E
:1004400004D389013AD0921100E08909C3098B4293
:1004500001D3CB01C01A524183098B4201D38B01D6
:10046000C01A524143098B4201D34B01C01A524179
:1004700003098B4201D30B01C01A5241C3088B42BE
:1004800001D3CB00C01A524183088B4201D38B00A9
:10049000C01A5241D9D243088B4201D34B00C01A33
:1004A0005241411A00D201465241104663465B1048
:1004B00001D34042002B00D54942704763465B1090
:1004C00000D3404201B50549002802DC491C084020
:1004D00000E00846C046C04602BD00BFFFFFFF7FE8
:1004E000704770477047754600F024F8AE46050027
:1004F00069465346C008C000854618B020B5FFF7CE
:1005000059FE60BCB64600260027C0C5C0C5C0C5A0
:10051000C0C5C0C5C0C5C0C5C0C5403D490849002B
:100520008D46704710B50446C046C0462046FFF7CA
:1005300020FE10BD0048704710000020014918201F
:10054000ABBEFEE7260002007047000080B50348FE
:1005500000F0D0F8024800F0CDF880BDB8000020CF
:100560007400002080B5034800F0C4F8024800F091
:10057000C1F880BD40010020FC00002080B582B0A1
:100580000190019800900068064940181421FFF777
:10059000F1FE00998000086401990348C86302B025
:1005A00080BDC046F8FFFDBF0000024084B003904C
:1005B00002910192009303990A6C01209040C96B4B
:1005C00048600098039909684860039840681028BB
:1005D00009D1FFE701980399096888600298039997
:1005E0000968C86008E00298039909688860019862
:1005F00003990968C860FFE704B0704781B0EFF362
:10060000108072B60090FFE7FEE782B0009000987D
:100610002121405C02280DD0FFE700990420886367
:10062000FFE70099202200208854FFE701A901205C
:1006300008701FE00098016808680E229043086067
:1006400000980268116801208143116000990A6CCA
:100650009040C96B4860FFE700992122012088542F
:10066000FFE70099202200208854FFE701A900201D
:100670000870FFE701A8007802B0704780B582B02B
:10068000019069460020087001982121405C0228F1
:1006900007D0FFE7019904208863694601200870AC
:1006A00024E00198016808680E22904308600198D0
:1006B00002681168012081431160019A136C0146A0
:1006C0009940D26B5160019921228854FFE701992A
:1006D000202200208854FFE70198406B002804D0B6
:1006E000FFE70198416B8847FFE7FFE7684600781E
:1006F00002B080BD80B584B003900398C06B0068E1
:100700000290039800680068019002980399096CB0
:10071000C8404007002824D5FFE701A8007840071B
:1007200000281ED5FFE703980068006880060028AF
:1007300007D4FFE703980168086804229043086023
:10074000FFE703990A6C04209040C96B4860039846
:10075000C06A002804D0FFE70398C16A8847FFE712
:1007600067E002980399096CC840800700282ED5DD
:10077000FFE701A800788007002828D5FFE7039845
:1007800000680068800600280BD4FFE70398016822
:1007900008680A22904308600399212201208854A6
:1007A000FFE703990A6C02209040C96B4860FFE79D
:1007B0000399202200208854FFE70398806A0028CC
:1007C00004D0FFE70398816A8847FFE730E002988A
:1007D0000399096CC8400007002828D5FFE701A845
:1007E00000780007002822D5FFE703980168086811
:1007F0000E2290430860039A136C01200146994031
:10080000D26B516003998863039921228854FFE7D2
:100810000399202200208854FFE70398006B0028EA
:1008200004D0FFE70398016B8847FFE7FFE7FFE786
:10083000FFE704B080BD000080B584B002900020C6
:1008400001900298002804D1FFE703A90120087055
:1008500031E0029921220092022088540298006817
:10086000006801900198164908400190029841687B
:1008700082681143C26811430269114342691143FE
:1008800082691143C06901430198084301900198AE
:100890000299096808600298FFF770FE009B0299B0
:1008A00000208863029A0121D154029920228854A1
:1008B00003A90870FFE703A8007804B080BDC04614
:1008C0000FC0FFFF80B586B00490039102920193A0
:1008D000694600200870FFE704982021405C012849
:1008E00004D1FFE705A9022008704CE004992022FA
:1008F00001208854FFE7FFE704982121405C01288C
:1009000033D1FFE704992122022088540499002062
:10091000886304980168086801229043086004987D
:100920000399029A019BFFF741FE0498C06A0028D0
:1009300007D0FFE70498016808680E22104308609A
:100940000CE00498016808680A22104308600498C3
:1009500001680868042290430860FFE70498016872
:10096000086801221043086009E0FFE7049920228B
:1009700000208854FFE7694602200870FFE70098CE
:1009800005A90870FFE705A8007806B080BD000043
:100990008AB00990089100200790FFE70898006846
:1009A0000799C840002800D147E108980068079AD5
:1009B00001219140084006900698002800D138E1B6
:1009C0000898406803210840012807D0FFE70898ED
:1009D00040680321084002282CD1FFE7099880686D
:1009E00005900798400003218140059888430590B1
:1009F0000898C16807984000814005980843059011
:100A00000598099988600998406805900798012120
:100A10008140059888430590089840681021084057
:100A200001090798814005980843059005980999A0
:100A30004860FFE70898406803210840032816D063
:100A4000FFE70998C068059007984000032181409E
:100A50000598884305900898816807984000814070
:100A600005980843059005980999C860FFE708981C
:100A7000406803210840022820D1FFE70998079920
:100A8000C90889004018006A059007984007C00E01
:100A90000F218140059888430590089801690798BF
:100AA0004007C00E814005980843059005980999B4
:100AB000079AD208920089180862FFE7099800682F
:100AC000059007984100032002468A40059991430A
:100AD00005910899496801400798400081400598B0
:100AE000084305900598099908600898807980075F
:100AF000002800D19CE0FFE7A548026801210A43D5
:100B000002600068084004900498FFE707980321FA
:100B100088434B494058059007988007000F0F21E4
:100B2000814005988843059009980921C9068842A3
:100B300003D1FFE70020039017E00998414988425C
:100B400003D1FFE7012002900CE009993E4A022000
:100B5000052300939142019001D0009801900198E3
:100B60000290FFE702980390FFE703990798800738
:100B7000000F8140059808430590059807990322C6
:100B800091432F4A8850314800680590069905988E
:100B90008843059008988079C006002805D5FFE7AE
:100BA0000699059808430590FFE7059827490860CE
:100BB000274800680590069905988843059008988D
:100BC00080798006002805D5FFE706990598084337
:100BD0000590FFE705981E4908601E4800680590CB
:100BE0000699059888430590089880798007002821
:100BF00005D5FFE70699059808430590FFE7059896
:100C000014490860144800680590069905988843BF
:100C1000059008988079C007002805D0FFE706995D
:100C2000059808430590FFE705980B490860FFE722
:100C3000FFE70798401C0790B0E60AB07047C0462F
:100C40000800014000040048000800480804014072
:100C50000C040140040401400004014083B00290F0
:100C600001A80180029949690091009A0188104603
:100C700008400004914340180299886103B070470E
:100C800083B0029001A801806846027000780028B5
:100C900005D0FFE701A800880299886104E001A857
:100CA000008802998862FFE703B070470548006832
:100CB0007047C046274802780249086880180860D3
:100CC0007047C046D003002080B582B0064908684E
:100CD0001022104308600020019000F007F800F097
:100CE0003DF8019802B080BD0020024080B584B07C
:100CF0000290174800680190164801787D20C000D6
:100D0000FFF738FB01460198FFF734FB00F0AEFE19
:100D1000002804D0FFE703A90120087014E002981E
:100D2000032809D8FFE702990022D04300F03DF8DC
:100D300002980949086003E003A90120087003E054
:100D400003A900200870FFE703A8007804B080BD65
:100D500000000020040000200800002082B0FFE70F
:100D60000B48026801210A430260006808400190B4
:100D70000198FFE7FFE786480268012109070A4357
:100D800002600068084000900098FFE702B07047DA
:100D90001810024080B582B0014601A80170002100
:100DA000405603F0CBFC02B080BD80B584B0034652
:100DB00003A803700291019200214056029903F0AA
:100DC000D3FC04B080BD000080B586B00490002044
:100DD0000390029004988078C007002800D193E027
:100DE00001A9002008706A480068C000002810D4DB
:100DF000FFE7FFE766480268012109070A4302602E
:100E00000068084000900098FFE701A901200870E1
:100E1000FFE760480068C00500281DD4FFE75D4972
:100E200008680122120210430860FFF73FFF039099
:100E3000FFE758480068C00500280CD4FFE7FFF71B
:100E400035FF0399401A652804D3FFE705A903205D
:100E5000087099E0EDE7FFE74F48006803210902B9
:100E6000084002900298002838D0FFE702980499C1
:100E7000496803221202114088422FD0FFE74649F9
:100E800008680322120290430290086801221204AB
:100E9000104308600868904308600298086002A840
:100EA0000078C007002818D0FFE7FFF7FFFE039087
:100EB000FFE739480068800700280DD4FFE7FFF7F7
:100EC000F5FE0399401AAF49884204D3FFE705A90C
:100ED0000320087058E0ECE7FFE7FFE72E490868B9
:100EE000032212029043049A52681043086001A83A
:100EF0000078012807D1FFE7254908680122120779
:100F000090430860FFE7FFE704980078C0070028D7
:100F100009D0FFE72149086803229043049A9268A8
:100F200010430860FFE7049800788006002809D580
:100F3000FFE71A49086810229043049AD2681043C8
:100F40000860FFE7049880788007002809D5FFE74C
:100F50001249086880229043049A5269104308603D
:100F6000FFE7049840784007002809D5FFE70B49C0
:100F7000086840229043049A126910430860FFE712
:100F800005A900200870FFE705A8007806B080BD1D
:100F90001C1002400070004020100240301002403F
:100FA00080B586B0049003910498002804D1FFE72F
:100FB00005A901200870D9E003986E49096801224B
:100FC0001140884212D9FFE76A48026801218A432A
:100FD000039B1A430260006808400399884204D0CA
:100FE000FFE705A901200870C0E0FFE7049800783A
:100FF0008007002816D5FFE70498007840070028EE
:1010000007D5FFE7AB4908680722120210430860C2
:10101000FFE7A8490868F0229043049A92681043B9
:101020000860FFE704980078C007002861D0FFE758
:101030000498406801280BD1FFE74F4800688003FF
:10104000002804D4FFE705A9012008708EE02CE0F9
:101050000498406802280BD1FFE7474800688001E8
:10106000002804D4FFE705A9012008707EE01BE0FA
:101070000498406803280BD1FFE7404800688003CC
:10108000002804D4FFE705A9012008706EE00AE0FB
:10109000394800688007002804D4FFE705A901202B
:1010A000087063E0FFE7FFE7FFE782490868032273
:1010B0009043049A526810430860FFF7F7FD0290CE
:1010C000FFE77C4800680C210840049949688900C2
:1010D00088420DD0FFE7FFF7E9FD0299401A294940
:1010E000884204D3FFE705A9032008703EE0E8E743
:1010F000FFE703981F49096801221140884212D274
:10110000FFE71C48026801218A43039B1A430260DF
:10111000006808400399884204D0FFE705A9012030
:10112000087023E0FFE704980078400700280AD5FC
:10113000FFE760490868072212029043049AD268C8
:1011400010430860FFE700F035F85A490968C9B252
:101150000A090B49895CC8400D49086000200190CC
:10116000FFF7C4FD019805A90870FFE705A80078FE
:1011700006B080BD00200240001002403410024042
:101180000049000889130000014800687047C04604
:101190000000002080B5FFF7F7FF464909680722E5
:1011A000120211400A0A0249895CC84080BDC0464B
:1011B0001049000880B586B0002005900490039087
:1011C000029001903B480068059005980C2108406A
:1011D00000900C2868D80098810001A040588746EC
:1011E000A7120008A9120008A9120008A9120008F5
:1011F00015120008A9120008A9120008A912000877
:101200001B120008A9120008A9120008A912000860
:10121000A11200082C48019049E005990F20820492
:1012200011408A0C2549895C0291254909680140D1
:101230002448405C049005980321C903084001211B
:10124000090488420BD1FFE7049A1F48002319467E
:10125000FEF7E8FF029AFEF7CDFF03901DE0059828
:101260000321C903084088420BD1FFE7049A1248C2
:1012700000231946FEF7D6FF029AFEF7BBFF039044
:101280000AE0049A104800231946FEF7CBFF029AA1
:10129000FEF7B0FF0390FFE7FFE70398019006E039
:1012A0000548019003E0FFE707480190FFE7019838
:1012B00006B080BD04100240006CDC021849000832
:1012C0002C1002402849000800127A0080B588B02E
:1012D00006900698002804D1FFE707A901200870AE
:1012E000B1E306980078C007002800D197E0FE48D7
:1012F00000680C210840042811D0FFE7FA48006874
:101300000C21084008281AD1FFE7F748006803219C
:10131000C903084001210904884210D1FFE7F348BE
:1013200000688003002809D5FFE706984068002878
:1013300004D1FFE707A90120087084E36EE0FFE70E
:1013400006984068012807D1FFE7E84908680122AC
:101350001204104308602CE00698406800280BD166
:10136000FFE7E2490868012213049843086008680F
:101370009204904308601BE00698406805280BD152
:10138000FFE7DA49086801229304184308600868F7
:101390001204104308600AE0D449086801221304CB
:1013A000984308600868920490430860FFE7FFE7ED
:1013B000FFE7FFE706984068002817D0FFE7FFF730
:1013C00075FC0590FFE7C9480068800300280CD42D
:1013D000FFE7FFF76BFC0599401A652804D3FFE788
:1013E00007A9032008702EE3EDE716E0FFF75EFC87
:1013F0000590FFE7BD480068800300280CD5FFE793
:10140000FFF754FC0599401A652804D3FFE707A9A4
:101410000320087017E3EDE7FFE7FFE7FFE7069813
:101420000078800700287AD5FFE7AF4800680007FA
:10143000800F002811D0FFE7AB4800680C2108405E
:10144000082824D1FFE7A84800680321C903084001
:101450000121C90388421AD1FFE7A4480068800728
:10146000002809D5FFE70698C068012804D0FFE7E7
:1014700007A901200870E6E29C490868F822904319
:10148000069A1269D20010430860FFE746E006980A
:10149000C068002825D0FFE794490868012210435E
:1014A0000860FFF703FC0590FFE79048006880079D
:1014B00000280CD4FFE7FFF7F9FB0599401A032831
:1014C00004D3FFE707A903200870BCE2EDE78749D2
:1014D0000868F8229043069A1269D2001043086007
:1014E0001BE082490868012290430860FFF7DEFB99
:1014F0000590FFE77D480068800700280CD5FFE7CE
:10150000FFF7D4FB0599401A032804D3FFE707A986
:101510000320087097E2EDE7FFE7FFE7FFE7069893
:101520000078000700283ED5FFE70698C06900282C
:101530001CD0FFE76E490868012210430860FFF7DE
:10154000B5FB0590FFE76A480068800700280CD4C7
:10155000FFE7FFF7ABFB0599401A032804D3FFE729
:1015600007A9032008706EE2EDE71BE060490868F8
:10157000012290430860FFF799FB0590FFE75C4864
:101580000068800700280CD5FFE7FFF78FFB05995F
:10159000401A032804D3FFE707A90320087052E28A
:1015A000EDE7FFE7FFE7069800784007002800D442
:1015B000C1E002A9002008704E480068C000002861
:1015C00010D4FFE7FFE74B480268012109070A43EF
:1015D00002600068084001900198FFE702A901201D
:1015E0000870FFE744480068C00500281DD4FFE7E5
:1015F000414908680122120210430860FFF756FBB8
:101600000590FFE73C480068C00500280CD4FFE7C0
:10161000FFF74CFB0599401A652804D3FFE707A99B
:10162000032008700FE2EDE7FFE7FFE70698806808
:10163000012806D1FFE731490868012210430860FC
:1016400029E00698806800280AD1FFE72B4908683E
:10165000012290430860086804229043086019E062
:101660000698806805280AD1FFE7FC49086804222B
:1016700010430860086801221043086009E0F74938
:1016800008680122904308600868042290430860BB
:10169000FFE7FFE7FFE7FFE706988068002818D01C
:1016A000FFE7FFF703FB0590FFE7EC4800688007C2
:1016B00000280DD4FFE7FFF7F9FA0599401AE84929
:1016C000884204D3FFE707A903200870BBE1ECE7D9
:1016D00024E0FFF7EBFA0590FFE7E0480068800799
:1016E00000281AD50CE0C046041002400010024049
:1016F000241002401C1002400070004020100240E4
:10170000FFF7D4FA0599401AD549884204D3FFE778
:1017100007A90320087096E1DFE7FFE702A8007839
:10172000012807D1FFE7CC4908680122120790433E
:101730000860FFE7FFE706980078C006002864D538
:10174000FFE706984069012829D1FFE7C5490868E5
:101750000422104308600868012210430860FFF764
:10176000A5FA0590FFE7BF480068800700280CD461
:10177000FFE7FFF79BFA0599401A032804D3FFE718
:1017800007A9032008705EE1EDE7B6490868F82272
:101790009043069A9269D2001043086034E006989C
:1017A0004069401D00280ED1FFE7AE4908680422B9
:1017B000904308600868F8229043069A9269D20024
:1017C000104308601FE0A74908680422104308601E
:1017D0000868012290430860FFF768FA0590FFE768
:1017E000A0480068800700280CD5FFE7FFF75EFAE5
:1017F0000599401A032804D3FFE707A903200870BE
:1018000021E1EDE7FFE7FFE7FFE7069800788006B4
:10181000002867D5FFE78E4800680C2108400C2897
:101820000FD0FFE78A4800680C210840082818D12B
:10183000FFE7874800680321C9030840884210D1A8
:10184000FFE7884800688003002809D5FFE706986D
:10185000006A012804D0FFE707A901200870F2E020
:101860003FE00698006A00281DD0FFE77D49086820
:101870000122120410430860FFF718FA0590FFE7F1
:1018800078480068800300280CD4FFE7FFF70EFAC1
:101890000599401A032804D3FFE707A9032008701D
:1018A000D1E0EDE71CE06F49086801221204904383
:1018B0000860FFF7FBF90590FFE76A4800688003BE
:1018C00000280CD5FFE7FFF7F1F90599401A032826
:1018D00004D3FFE707A903200870B4E0EDE7FFE7B2
:1018E000FFE7FFE70698406A002800D1A7E05848C4
:1018F00000680C210840082871D0FFE70698406A6C
:1019000002284ED1FFE7534908680122120690438E
:101910000860FFF7CBF90590FFE74E4800688001AB
:1019200000280CD5FFE7FFF7C1F90599401A0328F5
:1019300004D3FFE707A90320087084E0EDE7FFE781
:10194000494908680F229043069A126B10430860B9
:101950003F4908687B22D2039043069BDA6A9B6A60
:101960001A4310430860FFE73A490868012212064B
:1019700010430860FFF79AF90590FFE735480068C3
:10198000800100280CD4FFE7FFF790F90599401A71
:10199000032804D3FFE707A90320087053E0EDE70D
:1019A0001CE02C4908680122120690430860FFF7EA
:1019B0007DF90590FFE727480068800100280CD5D5
:1019C000FFE7FFF773F90599401A032804D3FFE7EF
:1019D00007A90320087036E0EDE7FFE72EE0069840
:1019E000406A012804D1FFE707A9012008702AE016
:1019F0001748006804901C4800680390049803216D
:101A0000C90308400699896A884211D1FFE7039803
:101A10000F2108400699096B884209D1FFE7049815
:101A20000F21890408400699C96A884204D0FFE75B
:101A300007A90120087006E0FFE7FFE7FFE707A915
:101A400000200870FFE707A8007808B080BDC046F6
:101A500004100240001002401C10024020100240FE
:101A600089130000341002402C10024080B582B06F
:101A70000190019801F0E0FB02B080BD84B00290BB
:101A8000019100200090FFE702983C21405C012872
:101A900004D1FFE703A90220087046E002993C2226
:101AA00001208854FFE7FFE70098FF218843019950
:101AB000C9680843009000980321090288430199EE
:101AC000896808430090009801218A029043019A96
:101AD0005268104300900098CA029043019A12681D
:101AE0001043009000980A039043019A1269104332
:101AF000009000984A039043019A52691043009065
:101B00000098890388430199C969084300900098A7
:101B1000029909684864FFE702993C220020885432
:101B2000FFE703A900200870FFE703A8007804B0CE
:101B30007047000085B003900291FFE703983C21B5
:101B4000405C012804D1FFE704A9022008704DE0A1
:101B500003993C2201208854FFE7FFE703993D22C7
:101B60000220885403980068406801900398006838
:101B70008068009001987021884301900298016864
:101B800001980843019001980399096848600398F7
:101B90000068E04988420DD0FFE703980068012102
:101BA0008907884206D0FFE703980068DA4988422F
:101BB0000ED1FFE700988021884300900298416889
:101BC0000098084300900098039909688860FFE72F
:101BD00003993D2201208854FFE703993C2200200D
:101BE0008854FFE704A900200870FFE704A80078E4
:101BF00005B0704780B582B000900098002804D1ED
:101C0000FFE701A9012008703FE000983D21405CFA
:101C1000002808D1FFE700993C2200208854009852
:101C200000F038F8FFE700993D220220885400991F
:101C300001C901F0D5FC0099462201208854FFE734
:101C400000993E220120885400993F22885400992F
:101C500040228854009941228854FFE7FFE7009909
:101C6000422201208854009943228854009944223A
:101C70008854009945228854FFE700993D220120AD
:101C8000885401A900200870FFE701A8007802B07D
:101C900080BD000083B00290029800689D49884290
:101CA0000DD1FFE7FFE7114802680121C9020A438D
:101CB00002600068084001900198FFE712E0029876
:101CC0000068954988420CD1FFE7FFE706480268A3
:101CD00002210A4302600068084000900098FFE774
:101CE000FFE7FFE703B070471C10024018100240E6
:101CF00080B586B00490039102A900200870FFE728
:101D000004983C21405C012804D1FFE705A902208A
:101D10000870AEE004993C2201208854FFE7FFE7F9
:101D200004993D220220885404980068806801903C
:101D300001987721884301900198FF210902884387
:101D400001900198049909688860039800680090E0
:101D5000002875D0FFE70098102871D0FFE70098A1
:101D600020286DD0FFE70098302869D0FFE7009861
:101D7000402858D0FFE7009850283AD0FFE7009855
:101D8000602843D0FFE7009870280DD0FFE7009847
:101D900001210903884206D0FFE700980121490389
:101DA000884216D053E056E004980068039B996877
:101DB0005A68DB6801F0B3FC049800688068019001
:101DC0000198772108430190019804990968886077
:101DD00041E004980068039B99685A68DB6801F049
:101DE0009EFC049801688868012292031043886071
:101DF00031E004980068039A5168D26801F0A4FEAB
:101E000004980068502101F0A5FC24E004980068C3
:101E1000039A5168D26801F0BFFE049800686021FF
:101E200001F098FC17E004980068039A5168D268A2
:101E300001F08AFE04980068402101F08BFC0AE062
:101E4000049800680399096801F084FC03E002A982
:101E500001200870FFE704993D2201208854FFE724
:101E600004993C2200208854FFE7029805A90870D5
:101E7000FFE705A8007806B080BD000080B588B0F7
:101E80000790002006900590049003900290079818
:101E90000068204988421BD1FFE7FFE71F4802681E
:101EA000012149040A43026000680840019001983A
:101EB000FFE7012108020290022003900022049211
:101EC000059106900920C00602A9FEF761FD1FE0FA
:101ED00007980068F949884219D1FFE7FFE70F48E2
:101EE0000268012189040A430260006808400090EA
:101EF0000098FFE702200290039000200490012048
:101F000005900690064802A9FEF742FDFFE7FFE7AD
:101F100008B080BD002C01400004004014100240B5
:101F20000004004880B586B004900391029201A994
:101F300000200870FFE704983C21405C012804D190
:101F4000FFE705A902200870A0E004993C220120C7
:101F50008854FFE7FFE7029800900C2800D987E03B
:101F60000098810001A040588746C046A11F000884
:101F7000712000087120000871200008D31F00089C
:101F80007120000871200008712000080920000855
:101F90007120000871200008712000083B20000813
:101FA00004980068039901F0EBFB049801688869C4
:101FB00008221043886104980168886904229043CC
:101FC00088610398026904980168886910438861F0
:101FD00052E004980068039901F048FC04980168F5
:101FE00088690122D30218438861049801688869CE
:101FF0009202904388610398006902020498016884
:1020000088691043886137E004980068039901F0FB
:10201000B9FC04980168C86908221043C861049893
:102020000168C86904229043C86103980269049852
:102030000168C8691043C8611EE0049800680399EC
:1020400001F026FD04980168C8690122D3021843F3
:10205000C86104980168C86992029043C8610398F6
:102060000069020204980168C8691043C86103E06E
:1020700001A901200870FFE7FFE704993C22002036
:102080008854FFE7019805A90870FFE705A80078C4
:1020900006B080BD80B582B000900098002804D1C1
:1020A000FFE701A9012008703FE000983D21405C56
:1020B000002808D1FFE700993C22002088540098AE
:1020C00000F037F8FFE700993D220220885400997C
:1020D00001C901F085FA0099462201208854FFE7E2
:1020E00000993E220120885400993F22885400998B
:1020F00040228854009941228854FFE7FFE7009965
:102100004222012088540099432288540099442295
:102110008854009945228854FFE700993D22012008
:10212000885401A900200870FFE701A8007802B0D8
:1021300080BD81B0009001B07047000080B58CB0C8
:102140000A9009910998002805D1FFE70A983E21D5
:10215000405C07901CE00998042805D1FFE70A9825
:102160003F21405C069010E00998082805D1FFE760
:102170000A984021405C059004E00A984121405CA7
:102180000590FFE705980690FFE706980790FFE7A0
:102190000798012804D0FFE70BA90120087083E00D
:1021A0000998002805D1FFE70A993E2202208854A9
:1021B0001EE00998042806D1FFE70A993F22022071
:1021C0008854049012E00998082806D1FFE70A997C
:1021D000402202208854039005E00A9941220220FF
:1021E00088540390FFE703980490FFE70498FFE703
:1021F0000A98006809990122019201F077FA019882
:102200000A9909682A4A9142029010D0FFE70A9879
:1022100001680120274A9142029008D0FFE70A98FE
:10222000006825494018414248410290FFE7029862
:10223000C007002808D0FFE70A980168486C01220F
:10224000D20310434864FFE70A980068184988429F
:102250000DD0FFE70A98006801218907884206D05F
:10226000FFE70A9800681549884212D1FFE70A98EB
:10227000006880680721084008900898062807D061
:10228000FFE70A9801680868012210430860FFE729
:1022900006E00A9801680868012210430860FFE719
:1022A0000BA900200870FFE70BA800780CB080BDD8
:1022B000002C01400044014000B8FEBF0004004073
:1022C00082B001906846018002B0704781B00090F2
:1022D00001B0704781B0009001B0704780B5A8B0E0
:1022E0000F900F980068C0690E900F980068006802
:1022F0000D900F98006880680C900E98EE49084089
:102300000B900B98002817D1FFE70EA800788006E5
:10231000002810D5FFE70DA80078800600280AD510
:10232000FFE70F98806E002804D0FFE70F98816EBA
:102330008847FFE757E2FFE70B98002800D1FBE052
:102340000CA80078C007002805D1FFE70D98DB49ED
:10235000084200D1F0E00EA80078C007002810D095
:10236000FFE70DA84078C00700280AD0FFE70F98C4
:102370000068012303620F9984228858184388500B
:10238000FFE70EA800788007002811D5FFE70CA80A
:102390000078C00700280BD0FFE70F9801680220E3
:1023A00008620F9984228858042318438850FFE755
:1023B0000EA800784007002811D5FFE70CA8007888
:1023C000C00700280BD0FFE70F98016804200862BF
:1023D0000F9984228858022318438850FFE70EA8DB
:1023E00000780007002816D5FFE70DA800788006C2
:1023F000002806D4FFE70CA80078C00700280AD000
:10240000FFE70F980068082303620F998422885819
:1024100018438850FFE70EA840780007002812D51F
:10242000FFE70DA8C078400700280CD5FFE70F98FC
:1024300001680120C00208620F9984228858202375
:1024400018438850FFE70F9884214058002872D025
:10245000FFE70EA800788006002810D5FFE70DA83A
:102460000078800600280AD5FFE70F98806E0028C4
:1024700004D0FFE70F98816E8847FFE7FFE70F98CA
:10248000842140580A900F980068806840210840D5
:10249000402806D0FFE70AA800782821084241D04A
:1024A000FFE70F9801F041FE0F9800688068400632
:1024B000002832D5FFE7FFE7EFF310801790179859
:1024C000099001202790279880F310880F980168C1
:1024D000886840229043886009982690269880F367
:1024E0001088FFE70F98406F002811D0FFE70F9882
:1024F000416FBE4848630F98406FFEF7BFF8002851
:1025000005D0FFE70F98406F416B8847FFE703E076
:102510000F98FFF7DFFEFFE703E00F98FFF7DAFE03
:10252000FFE707E00F98FFF7D5FE0F998422002000
:102530008850FFE7FFE756E10F98006E012800D0B2
:1025400016E10EA80078C006002800D410E10DA8FE
:102550000078C006002800D40AE10F980168102016
:1025600008620F98006880684006002800D490E058
:102570000F98406F0068416808A801800088002813
:1025800000D185E008A800880F995822895A88420E
:1025900000DB7DE008980F995A2288520F98406F0F
:1025A0008069202867D0FFE7FFE7EFF310801690DF
:1025B0001698079001222592259880F310880F988D
:1025C00001680868120290430860079824902498D4
:1025D00080F31088FFE7FFE7EFF310801590159860
:1025E000069001222392239880F310880F980168A7
:1025F00088689043886006982290229880F310881B
:10260000FFE7FFE7EFF31080149014980590012086
:102610002190219880F310880F98016888684022E3
:102620009043886005982090209880F31088FFE7F9
:102630000F998022202088500F9900200866FFE71C
:10264000EFF3108013901398049001201F901F98AF
:1026500080F310880F980168086810229043086082
:1026600004981E901E9880F31088FFE70F98406F23
:10267000FDF7CBFFFFE70F99022048660F9858211E
:10268000415A5A22825A891A89B2FFF719FEFFE786
:10269000A9E00F9A5820105A5A21525A801A03AAB8
:1026A00010800F98405A002861D0FFE703A80088E7
:1026B00000285CD004E0C0460F08000020010004A0
:1026C000FFE7EFF3108012901298029001201D9006
:1026D0001D9880F310880F9801680868092252013C
:1026E0009043086002981C901C9880F31088FFE7C4
:1026F000FFE7EFF3108011901198019001221B92D7
:102700001B9880F310880F98016888689043886050
:1027100001981A901A9880F31088FFE70F99802289
:10272000202088500F99002008660F998866FFE7DF
:10273000EFF31080109010980090012019901998D4
:1027400080F310880F980168086810229043086091
:1027500000981890189880F31088FFE70F990220CE
:1027600048660F9803A90988FFF7AAFDFFE73AE03A
:102770000EA88078C00600280FD5FFE70CA8807847
:102780004006002809D5FFE70F98016801200005E1
:1027900008620F98FFF79AFD25E00EA80078000662
:1027A000002810D5FFE70DA80078000600280AD5FC
:1027B000FFE70F98C06E002804D0FFE70F98C16EA6
:1027C0008847FFE70FE00EA80078400600280AD5EA
:1027D000FFE70DA800784006002804D5FFE70F9812
:1027E00001F0FBFCFFE728B080BDC046A53E000815
:1027F00080B582B000900098002804D1FFE701A9BD
:102800000120087048E000988069002801D0FFE7A7
:1028100000E0FFE70098C06F002808D1FFE70099AB
:10282000782200208854009800F03AF8FFE70099D9
:102830002420C86700980168086801229043086056
:102840000098406A002804D0FFE7009801F0CEF914
:10285000FFE7009801F004FD012804D1FFE701A97A
:102860000120087018E00098016848680922D20227
:10287000904348600098016888682A2290438860E5
:10288000009801680868012210430860009801F070
:102890005BFA01A90870FFE701A8007802B080BDCB
:1028A00080B592B01190002010900F900E900D9076
:1028B0000C9011980068724988426ED1FFE7FFE7DB
:1028C00078480268012189030A43026000680840D1
:1028D0000B900B98FFE7FFE76C4802680121490461
:1028E0000A430260006808400A900A98FFE7032143
:1028F00048020C9002200D90012006900E900F913E
:1029000010900920C0060CA9FEF742F80699664807
:102910000790664A02600022426082608023C360A2
:102920000261426182610903C161FDF785FF0028F0
:1029300003D0FFE7FDF762FEFFE7FFE711985A4972
:10294000416711984862FFE759480590594901606D
:1029500010214160002181608022C26001614161DB
:10296000816101210903C161FDF766FF002803D0E1
:10297000FFE7FDF743FEFFE7FFE711984C490167CA
:1029800011984862FFE71B20049000221146FEF7D1
:102990000CFA0498FEF7FEF96FE0119800683949C7
:1029A000884269D1FFE7FFE73748026801214904FF
:1029B0000A4302600068084009900998FFE7FFE7B2
:1029C00032480268012149040A4302600068084055
:1029D00008900898FFE72E480C9002200D900120E7
:1029E0000E9003210F9110900920C0060CA9FDF74D
:1029F000CFFF284803902849016000214160816091
:102A00008022C260016141618161C161FDF714FFF3
:102A1000002803D0FFE7FDF7F1FDFFE7FFE711987E
:102A20001C49416711984862FFE71C4802901C4905
:102A3000016010214160002181608022C26001613B
:102A400041618161C161FDF7F7FE002803D0FFE716
:102A5000FDF7D4FDFFE7FFE71198104901671198D2
:102A60004862FFE71C20019000221146FEF79DF905
:102A70000198FEF78FF9FFE7FFE712B080BDC0466F
:102A800000380140004400401C1002401410024075
:102A900004800000FC00002058000240400100209B
:102AA0004400024018100240740000203000024030
:102AB000B80000201C00024080B588B0039002914D
:102AC00001A8028003988021405820284FD1FFE7B9
:102AD0000298002805D0FFE701A80088002804D14B
:102AE000FFE704A90120087045E0039880680121F0
:102AF0000903884210D1FFE70398006900280BD131
:102B0000FFE702A80078C007002804D0FFE704A967
:102B1000012008702FE0FFE7039900200866039862
:102B2000006840680002002818D5FFE7FFE7EFF3D0
:102B3000108005900598009001220792079880F375
:102B4000108803980168086892061043086000988E
:102B50000690069880F31088FFE7FFE70398029934
:102B600001AA128801F0BEFC04A9087003E004A9C0
:102B700002200870FFE704A8007808B080BD0000BC
:102B800080B588B007900798374988422AD1FFE777
:102B90003C4800F01BFB014606A8017000780028A5
:102BA0001AD1FFE7334903910D2088730A20C873B7
:102BB000344805900722049200F010F903992B483D
:102BC000102200F065F8049A05982C4900F0DEFA0E
:102BD0002B4901200870FFE723482A490722FFF705
:102BE0006BFF3FE00798214988423AD1FFE7204830
:102BF00000F0ECFA014606A80170007800282FD1F9
:102C0000FFE71C4900910D2088730A20C8731848FB
:102C10000290072200F0E2F8009914481022019275
:102C200000F036F80099019A0F4800F031F8029848
:102C3000817801200140104801700078002809D1F6
:102C4000FFE70B480D49072200F0A0FA0C490120CC
:102C50000870FFE7054806490722FFF72DFFFFE749
:102C6000FFE7FFE708B080BD140200209C020020AF
:102C70005B0300209B030020240300202503002089
:102C80003A0300203B03002081B0009001B0704760
:102C900080B588B00390029101A802800398C06FAC
:102CA000202800D081E00298002805D0FFE701A885
:102CB0000088002804D1FFE704A90120087078E00B
:102CC0000398806801210903884210D1FFE7039827
:102CD000006900280BD1FFE702A80078C007002890
:102CE00004D0FFE704A90120087062E0FFE7029822
:102CF0000399C86401980399502288520198039956
:102D0000522288520399842200208850039921205E
:102D1000C8670398006F002828D0FFE70398016F69
:102D2000264888620398016F2548C8620398016F9E
:102D3000244808630398016F00204863039A106FCA
:102D4000D16C1268283201AB1B88FDF7BBFD00284F
:102D50000BD0FFE70399842210208850039920208C
:102D6000C86704A90120087023E0FFE70398016801
:102D700040200862FFE7EFF310800590059800906F
:102D800001200790079880F31088039801688868ED
:102D900080221043886000980690069880F310887F
:102DA000FFE704A90020087003E004A902200870CE
:102DB000FFE704A8007808B080BDC0468D40000839
:102DC00015410008C93E000881B0009001B070476D
:102DD00081B0009001B07047FFE7FEE787B0069032
:102DE000059104A8027003A900200870FFE703A85A
:102DF000007804A90978884240DAFFE7069803A919
:102E00000978405C02A908700878020901A80270DC
:102E100009780F2211406A4611700078092806DCF3
:102E2000FFE701983021084301A9087004E00198E8
:102E3000373001A90870FFE768460078092806DCEA
:102E4000FFE70098302108436946087004E00098C5
:102E5000373069460870FFE70198059903AA13788F
:102E60005B00C85400980599127852008918487080
:102E7000FFE70398401C03A90870B8E707B0704744
:102E800080B584B0FFE72A48026801210A43026046
:102E90000068084003900398FFE70A200090002292
:102EA00001921146FDF781FF0098FDF773FF019A2B
:102EB0000B2002901146FDF778FF0298FDF76AFF9C
:102EC00004B080BD80B58AB00020099008900790BA
:102ED00006900590FFE716480268012149040A435D
:102EE00002600068084004900498FFE7FFE710487C
:102EF0000268012189040A430260006808400390C7
:102F00000398FFE70B4802901821009100220192DC
:102F1000FDF7B6FE009A01990298059201220692E9
:102F20000792089105A9FDF733FD0AB080BDC046A0
:102F3000141002400004004880B598B000210191AF
:102F4000179116911591149113911291119110915D
:102F50000F910E910D910C910B910A91099108918D
:102F60000791069105910491039132480290324AEB
:102F70000260312242608160614AC2600161416148
:102F80008161FEF737FE002803D0FFE7FDF736FB2F
:102F9000FFE7012000031490264814A9FEF7A8FEBD
:102FA000002803D0FFE7FDF729FBFFE72148FFF7E3
:102FB00071F8002803D0FFE7FDF720FBFFE70020B2
:102FC000129013901B4812A9FEF7B4FD002803D0FD
:102FD000FFE7FDF713FBFFE760200B907D2000016A
:102FE0000C9000220D920E920F92109211921148A5
:102FF0000BA9FEF797FF002803D0FFE7FDF7FEFAC5
:10300000FFE70020039004900590069007900121AF
:10301000490308910A90074803A9FEF72FFD0028ED
:1030200003D0FFE7FDF7EAFAFFE70248FEF726FFC5
:1030300018B080BD84010020002C014080B58EB006
:10304000002100910D910C910B910A910991089129
:1030500007910691059104910391029101912648EF
:10306000264A0260312242608160254AC2600161C5
:103070008161FEF7BFFD002803D0FFE7FDF7BEFA30
:10308000FFE7012000030A901B480AA9FEF730FE63
:10309000002803D0FFE7FDF7B1FAFFE71648FEF777
:1030A000F9FF002803D0FFE7FDF7A8FAFFE70020AB
:1030B00008900990104808A9FEF73CFD002803D0AD
:1030C000FFE7FDF79BFAFFE7602001907D200001FC
:1030D0000290002003900590074801A90C22FEF7FA
:1030E00021FF002803D0FFE7FDF788FAFFE7024839
:1030F000FEF7C4FE0EB080BDCC01002000040040ED
:103100001F4E000080B582B00D4801900D4901604E
:103110004B21C901416000218160C16001610C2225
:1031200042618161C16101624162FFF761FB002878
:1031300003D0FFE7FDF762FAFFE702B080BDC046AB
:10314000140200200038014080B582B00D48019083
:103150000D4901604B21C901416000218160C160BE
:1031600001610C2242618161C16101624162FFF72C
:103170003FFB002803D0FFE7FDF740FAFFE702B06E
:1031800080BDC0469C0200200044004084B00390F3
:10319000029101A80270694600200870FFE76846A6
:1031A000007801A9097888420CDAFFE7039869469C
:1031B0000A78805C02998854FFE70098401C6946B1
:1031C0000870ECE704B07047FFE7FEE784B00390B7
:1031D00002A90120087003980078FF2826D1FFE794
:1031E00001A90020087069460870FFE7684600786A
:1031F00004280FDCFFE703986946097840184178F6
:103200000198401801A90870FFE70098401C694622
:103210000870EBE70398807901A90978884204D106
:10322000FFE702A900200870FFE7FFE702A8007887
:1032300004B070477047704780B584B00290029820
:10324000401E000E002803D0FFE70120039011E08C
:103250000298401E0949086000200190C0430321E4
:1032600001F082FA019806490860064A07211160B8
:103270000390FFE7039804B080BDC04614E000E06F
:1032800018E000E010E000E080B5FDF713FD00F06D
:1032900001F880BD80B586B09A480078012800D03A
:1032A00091E09849002008709748019097490722BB
:1032B0000092FFF76BFF009A01999548FFF766FFB0
:1032C0000199C8784007800F05AA1070C878C00619
:1032D000800F04AA107005988E4A507004988E4A88
:1032E00050700A7903A80270497902AA1170007817
:1032F000332804DBFFE78949052008802CE003A878
:103300000078212804DBFFE784490F20088022E0B1
:1033100003A80078112804DBFFE780491920088002
:1033200018E003A800780B2804DBFFE77B49642042
:1033300008800EE003A80078062804DBFFE7774941
:10334000C820088004E07549192000010880FFE7C3
:10335000FFE7FFE7FFE7FFE702A80078332804DB79
:10336000FFE76F49052008802CE002A8007821289B
:1033700004DBFFE76A490F20088022E002A80078FA
:10338000112804DBFFE766491920088018E002A82D
:1033900000780B2804DBFFE76149642008800EE019
:1033A00002A80078062804DBFFE75D49C8200880F2
:1033B00004E05B49192000010880FFE7FFE7FFE711
:1033C000FFE7FFE7FFE753484078002837D0FFE7E3
:1033D00054480188491C0180008850490988884266
:1033E0002CDBFFE74F49002008804A48407802283C
:1033F0000ED1FFE74C480188091D018000884C4927
:10340000884204DBFFE748494A480880FFE714E0A8
:103410004048407801280FD1FFE743480188091F41
:10342000018000884149884205DCFFE73E494B2086
:10343000C0000880FFE7FFE7FFE7FFE7FFE7364848
:103440004078002838D0FFE73B480188491C0180BC
:1034500000883349098888422DDBFFE73649002080
:1034600008802D48407802280FD1FFE733480188B3
:10347000091D018000883349884205DBFFE72F4999
:10348000192080010880FFE714E0234840780128D4
:103490000FD1FFE729480188091F018000882849CA
:1034A000884205DCFFE72549192040010880FFE735
:1034B000FFE7FFE7FFE7FFE71B48008822490968AD
:1034C00008641E480088214909684863204801882B
:1034D000491C018000887D21C900884208DBFFE784
:1034E0001B49002008801B480821FDF7B7FBFFE7B8
:1034F00019480078012801D1FFE700E0FFE706B096
:1035000080BDC0463A0300202C0300203303002076
:1035100025030020C4030020C6030020BE030020B2
:10352000CA030020BC030020C00300205702000093
:103530009908000098080000C8030020C20300207A
:103540001F03000041060000CC0100208401002080
:10355000CC030020000400482403002080B59AB06A
:103560000DA801903421FCF703FF0198002102917E
:103570000C910B910A91099108910791069105917F
:103580000491039120220D92012215921691FDF7CC
:103590009DFE002803D0FFE7FDF730F8FFE7072086
:1035A000099003200A9000200B900C9009A801219B
:1035B000FDF7F6FC002803D0FFE7FDF71FF8FFE753
:1035C000012003900020059003A8FDF7FDFB0028D3
:1035D00003D0FFE7FDF712F8FFE71AB080BD704790
:1035E00083B0029001910298006800900298E2492D
:1035F00088420BD0FFE7029801218907884205D055
:10360000FFE70298374988420AD1FFE70098702106
:103610008843009001984168009808430090FFE7B4
:103620000298D54988421AD0FFE7029801218907FC
:10363000884214D0FFE702982A4988420FD0FFE75A
:103640000298294988420AD0FFE70298CB4988426C
:1036500005D0FFE70298CA4988420BD1FFE70098DE
:1036600003210902884300900198C168009808432B
:103670000090FFE700988021884301994969084339
:103680000090009802990860019880680299C862C9
:1036900001980068029988620298B74988420AD066
:1036A000FFE70298B549884205D0FFE70298F7493D
:1036B000884205D1FFE70198006902990863FFE796
:1036C00002990120486102980069C007002806D0CD
:1036D000FFE702990869012290430861FFE703B000
:1036E0007047C046000400400020004084B00390B2
:1036F00002910192029A1F210A40012090400090FD
:10370000009B039A106A98431062019A029808403D
:1037100082400399086A1043086204B0704785B07C
:10372000049003910292019304988068009000989D
:10373000FF2109028843009003990298019A12021E
:103740001043014300980843009000980499886052
:1037500005B0704783B00290019102988068009094
:103760000098702188430090019800990843072130
:103770000843009000980299886003B070470000E9
:1037800085B0049003910498006A01900499086A36
:103790000122904308620498406800900498806970
:1037A0000290029870218843029002980321884376
:1037B0000290039801680298084302900198022140
:1037C0008843019003988168019808430190049808
:1037D000DA4988420AD0FFE70498D949884205D0DF
:1037E000FFE70498D74988420ED1FFE701980821E6
:1037F000884301900398C16801980843019001989B
:10380000042188430190FFE70498CC4988420AD0FC
:10381000FFE70498CA49884205D0FFE70498C949E0
:10382000884214D1FFE7009801210A0290430090DA
:103830000098490288430090039841690098084322
:10384000009003988169009808430090FFE7009872
:103850000499486002980499886103984068049923
:10386000486301980499086205B0704785B00490D8
:1038700003910498006A01900499086A1022904309
:103880000862049840680090049880690290029849
:103890000721090388430290029803210902884303
:1038A0000290039800680102029808430290019870
:1038B0002021884301900398806801010198084302
:1038C000019004989D49884212D0FFE704989C49D2
:1038D000884204D1FFE70020002809D1FFE70498BF
:1038E0009849884213D1FFE7012000280FD1FFE754
:1038F00001988021884301900398C06801010198D4
:10390000084301900198402188430190FFE7049803
:103910008A4988420AD0FFE704988949884205D03D
:10392000FFE704988749884216D1FFE700980121F4
:103930008A02904300900098C9028843009003983F
:1039400040698100009808430090039880698100D5
:10395000009808430090FFE7009804994860029897
:1039600004998861039840680499886301980499D0
:10397000086205B07047C046002C01400044014079
:103980000048014085B0049003910498006A0190BA
:10399000049A106A01210B0298431062049840684F
:1039A00000900498C069029002987022904302909F
:1039B00002980322904302900398026802981043F1
:1039C000029001984902884301900398806801029F
:1039D00001980843019004985849884212D0FFE7A3
:1039E00004985749884204D1FFE70020002809D1F4
:1039F000FFE704985349884214D1FFE701200028CB
:103A000010D1FFE701980121CA0290430190039869
:103A1000C06802020198104301900198890288430E
:103A20000190FFE70498454988420AD0FFE70498CF
:103A30004349884205D0FFE704984249884216D19D
:103A4000FFE7009801210A03904300900098490382
:103A50008843009003984069010100980843009052
:103A6000039880690101009808430090FFE70098DF
:103A70000499486002980499C861039840680499C1
:103A8000C86301980499086205B070470048014076
:103A900085B0049003910498006A0190049A106A1A
:103AA00001210B0398431062049840680090049829
:103AB000C069029002980722120390430290029874
:103AC00003221202904302900398006802020298B7
:103AD000104302900198490388430190039880683D
:103AE00001030198084301900498144988420AD0C0
:103AF000FFE704981249884205D0FFE7049811496E
:103B000088420CD1FFE70098012189038843009087
:103B1000039840698101009808430090FFE70098EE
:103B20000499486002980499C86103984068049910
:103B3000086401980499086205B07047002C0140A0
:103B4000004401400048014085B004900391029276
:103B50000498006A00900499086A01229043086260
:103B60000498806901900198F0218843019002989F
:103B7000010101980843019000980A2188430090B0
:103B8000039900980843009001980499886100986F
:103B90000499086205B0704785B0049003910292C1
:103BA0000498006A00900499086A10229043086201
:103BB00004988069019001980F21090388430190BE
:103BC000029801030198084301900098A0218843BE
:103BD000009003980101009808430090019804990F
:103BE000886100980499086205B0704781B0009020
:103BF00000982421405C000700280CD5FFE70098BE
:103C0000006840680121C903884300994A6B10434A
:103C100009684860FFE700982421405CC00700283D
:103C20000CD0FFE7009800684068012149048843F0
:103C300000998A6A104309684860FFE700982421C8
:103C4000405C800700280CD5FFE7009800684068BA
:103C50000121090488430099CA6A10430968486031
:103C6000FFE700982421405C400700280CD5FFE7BF
:103C700000980068406801218904884300990A6B14
:103C8000104309684860FFE700982421405CC006A3
:103C900000280CD5FFE7009800688068012109031F
:103CA000884300998A6B104309688860FFE7009891
:103CB0002421405C800600280CD5FFE700980068AE
:103CC00080680121490388430099CA6B1043096841
:103CD0008860FFE700982421405C400600281DD53D
:103CE000FFE7009800684068012109058843009AB1
:103CF000136C1843126850600098006C88420CD115
:103D0000FFE700980068406803214905884300994F
:103D10004A6C104309684860FFE7FFE700982421D8
:103D2000405C000600280CD5FFE70098006840685A
:103D30000121C904884300998A6C104309684860CE
:103D4000FFE701B07047000080B590B0059005997D
:103D5000842200208850FCF7A9FF04900598006891
:103D600000680007002831D5FFE70598049B4C49FF
:103D7000009101214905002200F050FC002824D0C8
:103D8000FFE7FFE7EFF31080099009980390012007
:103D90000F900F9880F310880598016808688022BA
:103DA0009043086003980E900E9880F31088FFE708
:103DB00005992020C867FFE70599782200208854DC
:103DC000FFE706A90320087065E0FFE70598006893
:103DD00000684007002849D5FFE70598049B304953
:103DE000009101218905002200F018FC00283CD038
:103DF000FFE7FFE7EFF3108008900898029001209A
:103E00000D900D9880F310880598016808680922C4
:103E100052019043086002980C900C9880F310882F
:103E2000FFE7FFE7EFF3108007900798019001226A
:103E30000B920B9880F3108805980168886890436E
:103E4000886001980A900A9880F31088FFE7059926
:103E5000802220208850FFE705997822002088548E
:103E6000FFE706A90320087015E0FFE70599202069
:103E7000C867059980228850059900200866059931
:103E80004866FFE70599782200208854FFE706A9D5
:103E900000200870FFE706A8007810B080BDC0467B
:103EA000FFFFFF0180B582B001900198406A009049
:103EB00000995A2200208852009952228852009874
:103EC000FEF708FA02B080BD80B584B00390039875
:103ED000406A02900298C06F019002988021405879
:103EE0000090029800688068000600280CD5FFE763
:103EF0000198212808D1FFE7029952220020885218
:103F0000029800F08FF9FFE7029800688068400689
:103F100000280CD5FFE70098222808D1FFE7029976
:103F20005A2200208852029800F0FFF8FFE7029919
:103F3000842288581023184388500298FEF7CAF943
:103F400004B080BD80B592B005900598406A049099
:103F50000598806920286AD0FFE704995A2200203A
:103F60008852FFE7EFF3108009900998039001222F
:103F70001192119880F31088049801680868120261
:103F80009043086003981090109880F31088FFE722
:103F9000FFE7EFF3108008900898029001220F923B
:103FA0000F9880F3108804980168886890438860AF
:103FB00002980E900E9880F31088FFE7FFE7EFF36A
:103FC000108007900798019001200D900D9880F3C4
:103FD000108804980168886840229043886001989E
:103FE0000C900C9880F31088FFE704998022202021
:103FF00088500498006E012818D1FFE7FFE7EFF31F
:10400000108006900698009001200B900B9880F38A
:10401000108804980168086810229043086000988E
:104020000A900A9880F31088FFE7FFE7FFE70499FA
:10403000002048660498006E012806D1FFE7049826
:104040005821415AFEF73CF903E00498FEF798FD29
:10405000FFE712B080BD80B582B001900198406A40
:1040600000900099012048660098006E012807D151
:10407000FFE700985821415A4908FEF721F903E06B
:104080000098FEF701FEFFE702B080BD80B58AB060
:1040900003900398406A029003988069202833D0E7
:1040A000FFE70299522200208852FFE7EFF31080C9
:1040B00005900598019001200990099880F31088D7
:1040C000029801688868802290438860019808906F
:1040D000089880F31088FFE7FFE7EFF31080049063
:1040E0000498009001200790079880F310880298A8
:1040F00001680868402210430860009806900698FE
:1041000080F31088FFE703E00298FEF75DFEFFE70B
:104110000AB080BD80B582B001900198406A0090DD
:104120000098FEF755FE02B080BD8DB00390FFE70A
:10413000EFF3108006900698029001200C900C98E6
:1041400080F310880398016808680922520190439F
:10415000086002980B900B9880F31088FFE7FFE748
:10416000EFF3108005900598019001220A920A98B9
:1041700080F31088039801688868904388600198EC
:104180000990099880F31088FFE70398006E0128D2
:1041900018D1FFE7FFE7EFF3108004900498009038
:1041A00001200890089880F3108803980168086837
:1041B00010229043086000980790079880F31088B9
:1041C000FFE7FFE703998022202088500399002011
:1041D0000866039988660DB0704780B586B0029076
:1041E000FFE7EFF310800390039801900120059002
:1041F000059880F31088029801680868402290436F
:10420000086001980490049880F31088FFE70299F1
:104210002020C86702990020C8660298FEF7D4FDE6
:1042200006B080BD85B00190FFE7EFF310800290EB
:104230000298009001200490049880F3108801985F
:1042400001680868C02290430860009803900398B2
:1042500080F31088FFE701992020C86705B07047F8
:1042600080B58AB0099004A900200870099988686F
:104270000A6910434A691043C969084308900998BC
:10428000006800689249084008990843099909683C
:104290000860099800684068032109038843099968
:1042A000CA681043096848600998806908900998AD
:1042B000016A0898084308900998006880680B21F3
:1042C0000902884308990843099909688860FFE74B
:1042D000099800687F49884229D1FFE77F48006834
:1042E00003210840029003281CD80298810001A0F5
:1042F0004058874605430008154300081D43000841
:104300000D43000806A9002008700FE006A902204E
:1043100008700BE006A90420087007E006A9082031
:10432000087003E006A910200870FFE70EE0099866
:1043300000686949884204D1FFE706A90020087097
:1043400003E006A910200870FFE7FFE7FFE70998E0
:10435000C0690121C90388425ED1FFE706A8007841
:104360000190082825D80198810001A0405887466F
:1043700095430008B34300089D430008B343000879
:10438000A3430008B3430008B3430008B343000845
:10439000AB430008FCF7FEFE039010E0504803908A
:1043A0000DE0FCF707FF039009E00120C003039034
:1043B00005E00020039004A901200870FFE703989E
:1043C000002828D0FFE703984000099949684A0867
:1043D0008018FBF7CFFF05900598102816D3FFE74C
:1043E00005A84088002811D1FFE705990F208143D7
:1043F00007A8018005990E2211404A080799114328
:104400000180008809990968C86003E004A90120B7
:104410000870FFE7FFE751E006A800780090082841
:1044200025D80098810001A04058874651440008D3
:104430006F440008594400086F4400085F440008B6
:104440006F4400086F4400086F4400086744000888
:10445000FCF7A0FE039010E0214803900DE0FCF76C
:10446000A9FE039009E00120C003039005E00020AD
:10447000039004A901200870FFE7039800281CD0CE
:10448000FFE70398099949684A088018FBF772FF0B
:104490000590059810280BD3FFE705A84088002851
:1044A00006D1FFE705A8008809990968C86003E0FC
:1044B00004A901200870FFE7FFE7FFE70999002042
:1044C00088660999C86604A800780AB080BDC0460D
:1044D000F369FFEF00380140004400403010024013
:1044E00000127A0080B590B00590049103A8028074
:1044F00004980599486503980599582288520599AA
:104500008422002088500599802222208850059816
:10451000406F002829D0FFE70598416F3C4888622A
:104520000598416F3B48C8620598416F3A48086357
:104530000598416F00204863059A506F1168243137
:10454000526D03AB1B88FCF7BDF900280CD0FFE7C8
:1045500005998422102088500599802220208850B7
:1045600006A9012008704EE0FFE7059800690028C1
:1045700018D0FFE7FFE7EFF3108009900998029049
:1045800001220F920F9880F310880598016808683F
:1045900012021043086002980E900E9880F3108863
:1045A000FFE7FFE7FFE7EFF310800890089801901E
:1045B00001220D920D9880F3108805980168886893
:1045C0001043886001980C900C9880F31088FFE7E6
:1045D000FFE7EFF3108007900798009001200B9001
:1045E0000B9880F310880598016888684022104372
:1045F000886000980A900A9880F31088FFE706A95F
:1046000000200870FFE706A8007810B080BDC04603
:10461000453F000857400008C93E000810B586B065
:10462000089C0490039102A802700193FFE704988C
:104630000068C06903990840401A4142484102A9F4
:104640000978884266D1FFE70898401C002860D0AE
:10465000FFE7FCF72BFB0199401A0899884204D820
:10466000FFE70898002804D1FFE705A90320087098
:1046700054E00498006800684007002848D5FFE728
:104680000398802844D0FFE70398402840D0FFE7F4
:1046900004980068C06908210840C008012816D1A4
:1046A000FFE7049801680820009008620498FFF76B
:1046B0003CFD0098049984228850FFE704997822F1
:1046C00000208854FFE705A90120087026E004981F
:1046D0000068C0690121C9020840C00A012816D13A
:1046E000FFE7049801680120C00208620498FFF700
:1046F0001CFD0499842220208850FFE70499782229
:1047000000208854FFE705A90320087006E0FFE7B2
:10471000FFE78CE705A900200870FFE705A80078EF
:1047200006B010BD80B57248FDF7D8FD80BDC0460B
:1047300080B57148FDF7D2FD80BDC04681B001460D
:104740006846017000214056002809D4FFE76846FA
:1047500001781F2001400120884002490860FFE7DE
:1047600001B0704700E100E070B582B0024601A8D8
:104770000270009100214056002816D4FFE7002463
:1047800001A908570322D3431840174A80580957F4
:104790008C07E50EFF24AC40A043009CA401E4B2CA
:1047A000AC402043194088501AE001A908780F2432
:1047B000204008380322D34318400A4A8058002575
:1047C00049578D07EE0EFF25B540A843009DAD016A
:1047D000EDB2B54028432140083919408850FFE721
:1047E00002B070BD1CED00E000E400E010B588B040
:1047F000002001900790304A012111702F49087064
:104800002F4A4B21890011802E4A11802E4A029294
:10481000AF21C90011802D4A05922D4911802D49E3
:10482000087048702C49087048702C4A3024009455
:10483000147054709470D47014710D2353710A2144
:104840009171274A147054709470D470147153711C
:10485000917124490880FCF737FAFEF77FFEFEF7D6
:1048600031FBFEF70DFBFEF767FBFEF7E7FBFEF7FC
:1048700049FCFEF769FC01991B480490FDF75EFCBA
:104880001A4803900C21FDF759FC029A039B0499E6
:10489000059812881B68DA63008809684863144821
:1048A000144907220692FEF707F9069A124813499F
:1048B000FEF702F9FFE7FEE7240300207000002066
:1048C000BE030020CA030020C0030020C203002052
:1048D00014050000C4030020C60300207B03002051
:1048E0009B030020CC03002084010020CC01002089
:1048F000140200203B0300209C0200205B030020E8
:10490000000000000000000001020304060708097F
:104910000000000001020304020304050607080961
:104920000A0B0C0D0E0F10100102030405060708F8
:10493000090A0B0C0D0E0F1058490008000000204A
:10494000100000001C010008684900081000002049
:10495000C80900003C01000800127A0001000000B4
:0849600004000000000000004B
:04000005080000C12E
:00000001FF
